:107E000001C0DEC0112484B7882361F0982F9A70D6
:107E1000923041F081FF02C097EF94BF282E80E09E
:107E2000BAD0EEC085E08093810082E08093C000EC
:107E300088E18093C10086E08093C20089E180934D
:107E4000C4008EE0A8D0259A86E028E13EEF91E0BC
:107E5000309385002093840096BBB09BFECF1D9A83
:107E6000A8954091C00047FD02C0815089F7EE24DB
:107E7000E39495E0D92E21E1C22E81D0813451F4D2
:107E80007ED0182F8ED0113811F083E001C088E029
:107E90006FD06BC0823411F484E103C0853419F4CF
:107EA00085E087D062C0853539F469D0C82F67D0A6
:107EB000D82FCC0FDD1F58C0863521F484E079D04F
:107EC00080E0E6CF843609F02EC059D058D0F82E85
:107ED00056D0B82E00E011E052D0F80181938F0106
:107EE000FE12FACF5ED0F5E4BF1201C0FFCF83E0EF
:107EF000FE0187BFE89507B600FCFDCFA0E0B1E02A
:107F0000FE018D919D910C01E7BEE89511243296FA
:107F1000FA12F7CFFE01D7BEE89507B600FCFDCFF9
:107F2000C7BEE89522C0843791F429D028D0F82E16
:107F300026D0182F36D0153409F4FFCF8E01F80162
:107F400085918F0115D0FA94F110F9CF0EC08537C5
:107F500039F427D08EE10CD085E90AD08FE098CF94
:107F6000813511F488E017D01CD080E101D085CF95
:107F70009091C00095FFFCCF8093C600089580913A
:107F8000C00087FFFCCF8091C00084FD01C0A89590
:107F90008091C6000895E0E6F0E098E19083808348
:107FA0000895EDDF803219F088E0F5DFFFCF84E13E
:107FB000DFCFCF93C82FE3DFC150E9F7CF91F1CFE7
:107FC000FC010A0167BFE895112407B600FCFDCF4C
:107FD000667029F0452B19F481E187BFE895089573
:027FFE00030876
:0400000300007E007B
:00000001FF
